{
  "_format": "hh-sol-artifact-1",
  "contractName": "MoonPin",
  "sourceName": "src/MoonPin.sol",
  "abi": [
    {
      "inputs": [],
      "stateMutability": "nonpayable",
      "type": "constructor"
    },
    {
      "anonymous": false,
      "inputs": [
        {
          "indexed": true,
          "internalType": "address",
          "name": "owner",
          "type": "address"
        },
        {
          "indexed": true,
          "internalType": "address",
          "name": "approved",
          "type": "address"
        },
        {
          "indexed": true,
          "internalType": "uint256",
          "name": "tokenId",
          "type": "uint256"
        }
      ],
      "name": "Approval",
      "type": "event"
    },
    {
      "anonymous": false,
      "inputs": [
        {
          "indexed": true,
          "internalType": "address",
          "name": "owner",
          "type": "address"
        },
        {
          "indexed": true,
          "internalType": "address",
          "name": "operator",
          "type": "address"
        },
        {
          "indexed": false,
          "internalType": "bool",
          "name": "approved",
          "type": "bool"
        }
      ],
      "name": "ApprovalForAll",
      "type": "event"
    },
    {
      "anonymous": false,
      "inputs": [
        {
          "indexed": true,
          "internalType": "address",
          "name": "from",
          "type": "address"
        },
        {
          "indexed": true,
          "internalType": "address",
          "name": "to",
          "type": "address"
        },
        {
          "indexed": true,
          "internalType": "uint256",
          "name": "tokenId",
          "type": "uint256"
        }
      ],
      "name": "Transfer",
      "type": "event"
    },
    {
      "inputs": [
        {
          "internalType": "address",
          "name": "to",
          "type": "address"
        },
        {
          "internalType": "uint256",
          "name": "tokenId",
          "type": "uint256"
        }
      ],
      "name": "approve",
      "outputs": [],
      "stateMutability": "nonpayable",
      "type": "function"
    },
    {
      "inputs": [
        {
          "internalType": "address",
          "name": "owner",
          "type": "address"
        }
      ],
      "name": "balanceOf",
      "outputs": [
        {
          "internalType": "uint256",
          "name": "",
          "type": "uint256"
        }
      ],
      "stateMutability": "view",
      "type": "function"
    },
    {
      "inputs": [
        {
          "internalType": "address",
          "name": "creator",
          "type": "address"
        },
        {
          "internalType": "string",
          "name": "tokenURI",
          "type": "string"
        }
      ],
      "name": "createMoonPin",
      "outputs": [
        {
          "internalType": "uint256",
          "name": "tokenId",
          "type": "uint256"
        }
      ],
      "stateMutability": "nonpayable",
      "type": "function"
    },
    {
      "inputs": [
        {
          "internalType": "uint256",
          "name": "tokenId",
          "type": "uint256"
        }
      ],
      "name": "downvote",
      "outputs": [],
      "stateMutability": "nonpayable",
      "type": "function"
    },
    {
      "inputs": [
        {
          "internalType": "uint256",
          "name": "tokenId",
          "type": "uint256"
        }
      ],
      "name": "getApproved",
      "outputs": [
        {
          "internalType": "address",
          "name": "",
          "type": "address"
        }
      ],
      "stateMutability": "view",
      "type": "function"
    },
    {
      "inputs": [
        {
          "internalType": "address",
          "name": "pinner",
          "type": "address"
        },
        {
          "internalType": "uint256",
          "name": "tokenId",
          "type": "uint256"
        }
      ],
      "name": "getHasPinned",
      "outputs": [
        {
          "internalType": "bool",
          "name": "",
          "type": "bool"
        }
      ],
      "stateMutability": "view",
      "type": "function"
    },
    {
      "inputs": [
        {
          "internalType": "uint256",
          "name": "tokenId",
          "type": "uint256"
        }
      ],
      "name": "getPins",
      "outputs": [
        {
          "internalType": "uint256",
          "name": "",
          "type": "uint256"
        }
      ],
      "stateMutability": "view",
      "type": "function"
    },
    {
      "inputs": [
        {
          "internalType": "address",
          "name": "voter",
          "type": "address"
        },
        {
          "internalType": "uint256",
          "name": "tokenId",
          "type": "uint256"
        }
      ],
      "name": "getVoted",
      "outputs": [
        {
          "internalType": "bool",
          "name": "",
          "type": "bool"
        }
      ],
      "stateMutability": "view",
      "type": "function"
    },
    {
      "inputs": [
        {
          "internalType": "uint256",
          "name": "tokenId",
          "type": "uint256"
        }
      ],
      "name": "getVotes",
      "outputs": [
        {
          "internalType": "uint256",
          "name": "",
          "type": "uint256"
        }
      ],
      "stateMutability": "view",
      "type": "function"
    },
    {
      "inputs": [
        {
          "internalType": "address",
          "name": "",
          "type": "address"
        },
        {
          "internalType": "uint256",
          "name": "",
          "type": "uint256"
        }
      ],
      "name": "hasPinned",
      "outputs": [
        {
          "internalType": "bool",
          "name": "",
          "type": "bool"
        }
      ],
      "stateMutability": "view",
      "type": "function"
    },
    {
      "inputs": [
        {
          "internalType": "address",
          "name": "owner",
          "type": "address"
        },
        {
          "internalType": "address",
          "name": "operator",
          "type": "address"
        }
      ],
      "name": "isApprovedForAll",
      "outputs": [
        {
          "internalType": "bool",
          "name": "",
          "type": "bool"
        }
      ],
      "stateMutability": "view",
      "type": "function"
    },
    {
      "inputs": [],
      "name": "name",
      "outputs": [
        {
          "internalType": "string",
          "name": "",
          "type": "string"
        }
      ],
      "stateMutability": "view",
      "type": "function"
    },
    {
      "inputs": [
        {
          "internalType": "uint256",
          "name": "tokenId",
          "type": "uint256"
        }
      ],
      "name": "ownerOf",
      "outputs": [
        {
          "internalType": "address",
          "name": "",
          "type": "address"
        }
      ],
      "stateMutability": "view",
      "type": "function"
    },
    {
      "inputs": [
        {
          "internalType": "uint256",
          "name": "tokenId",
          "type": "uint256"
        }
      ],
      "name": "pin",
      "outputs": [],
      "stateMutability": "nonpayable",
      "type": "function"
    },
    {
      "inputs": [
        {
          "internalType": "uint256",
          "name": "",
          "type": "uint256"
        }
      ],
      "name": "pins",
      "outputs": [
        {
          "internalType": "uint256",
          "name": "",
          "type": "uint256"
        }
      ],
      "stateMutability": "view",
      "type": "function"
    },
    {
      "inputs": [
        {
          "internalType": "address",
          "name": "from",
          "type": "address"
        },
        {
          "internalType": "address",
          "name": "to",
          "type": "address"
        },
        {
          "internalType": "uint256",
          "name": "tokenId",
          "type": "uint256"
        }
      ],
      "name": "safeTransferFrom",
      "outputs": [],
      "stateMutability": "nonpayable",
      "type": "function"
    },
    {
      "inputs": [
        {
          "internalType": "address",
          "name": "from",
          "type": "address"
        },
        {
          "internalType": "address",
          "name": "to",
          "type": "address"
        },
        {
          "internalType": "uint256",
          "name": "tokenId",
          "type": "uint256"
        },
        {
          "internalType": "bytes",
          "name": "data",
          "type": "bytes"
        }
      ],
      "name": "safeTransferFrom",
      "outputs": [],
      "stateMutability": "nonpayable",
      "type": "function"
    },
    {
      "inputs": [
        {
          "internalType": "address",
          "name": "operator",
          "type": "address"
        },
        {
          "internalType": "bool",
          "name": "approved",
          "type": "bool"
        }
      ],
      "name": "setApprovalForAll",
      "outputs": [],
      "stateMutability": "nonpayable",
      "type": "function"
    },
    {
      "inputs": [
        {
          "internalType": "bytes4",
          "name": "interfaceId",
          "type": "bytes4"
        }
      ],
      "name": "supportsInterface",
      "outputs": [
        {
          "internalType": "bool",
          "name": "",
          "type": "bool"
        }
      ],
      "stateMutability": "view",
      "type": "function"
    },
    {
      "inputs": [],
      "name": "symbol",
      "outputs": [
        {
          "internalType": "string",
          "name": "",
          "type": "string"
        }
      ],
      "stateMutability": "view",
      "type": "function"
    },
    {
      "inputs": [
        {
          "internalType": "uint256",
          "name": "tokenId",
          "type": "uint256"
        }
      ],
      "name": "tokenURI",
      "outputs": [
        {
          "internalType": "string",
          "name": "",
          "type": "string"
        }
      ],
      "stateMutability": "view",
      "type": "function"
    },
    {
      "inputs": [
        {
          "internalType": "address",
          "name": "from",
          "type": "address"
        },
        {
          "internalType": "address",
          "name": "to",
          "type": "address"
        },
        {
          "internalType": "uint256",
          "name": "tokenId",
          "type": "uint256"
        }
      ],
      "name": "transferFrom",
      "outputs": [],
      "stateMutability": "nonpayable",
      "type": "function"
    },
    {
      "inputs": [
        {
          "internalType": "uint256",
          "name": "tokenId",
          "type": "uint256"
        }
      ],
      "name": "unpin",
      "outputs": [],
      "stateMutability": "nonpayable",
      "type": "function"
    },
    {
      "inputs": [
        {
          "internalType": "uint256",
          "name": "tokenId",
          "type": "uint256"
        }
      ],
      "name": "vote",
      "outputs": [],
      "stateMutability": "nonpayable",
      "type": "function"
    },
    {
      "inputs": [
        {
          "internalType": "address",
          "name": "",
          "type": "address"
        },
        {
          "internalType": "uint256",
          "name": "",
          "type": "uint256"
        }
      ],
      "name": "voted",
      "outputs": [
        {
          "internalType": "bool",
          "name": "",
          "type": "bool"
        }
      ],
      "stateMutability": "view",
      "type": "function"
    },
    {
      "inputs": [
        {
          "internalType": "uint256",
          "name": "",
          "type": "uint256"
        }
      ],
      "name": "votes",
      "outputs": [
        {
          "internalType": "uint256",
          "name": "",
          "type": "uint256"
        }
      ],
      "stateMutability": "view",
      "type": "function"
    }
  ],
  "bytecode": "0x60806040523480156200001157600080fd5b506040518060400160405280600781526020017f4d6f6f6e50696e000000000000000000000000000000000000000000000000008152506040518060400160405280600281526020017f4d5000000000000000000000000000000000000000000000000000000000000081525081600090816200008f919062000324565b508060019081620000a1919062000324565b5050506200040b565b600081519050919050565b7f4e487b7100000000000000000000000000000000000000000000000000000000600052604160045260246000fd5b7f4e487b7100000000000000000000000000000000000000000000000000000000600052602260045260246000fd5b600060028204905060018216806200012c57607f821691505b602082108103620001425762000141620000e4565b5b50919050565b60008190508160005260206000209050919050565b60006020601f8301049050919050565b600082821b905092915050565b600060088302620001ac7fffffffffffffffffffffffffffffffffffffffffffffffffffffffffffffffff826200016d565b620001b886836200016d565b95508019841693508086168417925050509392505050565b6000819050919050565b6000819050919050565b600062000205620001ff620001f984620001d0565b620001da565b620001d0565b9050919050565b6000819050919050565b6200022183620001e4565b6200023962000230826200020c565b8484546200017a565b825550505050565b600090565b6200025062000241565b6200025d81848462000216565b505050565b5b8181101562000285576200027960008262000246565b60018101905062000263565b5050565b601f821115620002d4576200029e8162000148565b620002a9846200015d565b81016020851015620002b9578190505b620002d1620002c8856200015d565b83018262000262565b50505b505050565b600082821c905092915050565b6000620002f960001984600802620002d9565b1980831691505092915050565b6000620003148383620002e6565b9150826002028217905092915050565b6200032f82620000aa565b67ffffffffffffffff8111156200034b576200034a620000b5565b5b62000357825462000113565b6200036482828562000289565b600060209050601f8311600181146200039c576000841562000387578287015190505b62000393858262000306565b86555062000403565b601f198416620003ac8662000148565b60005b82811015620003d657848901518255600182019150602085019450602081019050620003af565b86831015620003f65784890151620003f2601f891682620002e6565b8355505b6001600288020188555050505b505050505050565b6135ff806200041b6000396000f3fe608060405234801561001057600080fd5b506004361061018d5760003560e01c80637b9e9751116100de578063c87b56dd11610097578063f31fdad411610071578063f31fdad4146104ee578063fd08cbb41461050a578063ff9810991461053a578063ffcf57431461056a5761018d565b8063c87b56dd1461045e578063e3db90201461048e578063e985e9c5146104be5761018d565b80637b9e97511461038c57806395d89b41146103bc578063a22cb465146103da578063b2e8ef1a146103f6578063b88d4fde14610412578063c591aa981461042e5761018d565b80630c6931101161014b5780635df81330116101255780635df81330146102cc5780636352211e146102fc57806370a082311461032c57806375a7d0241461035c5761018d565b80630c6931101461026457806323b872dd1461029457806342842e0e146102b05761018d565b8062865798146101925780630121b93f146101ae57806301ffc9a7146101ca57806306fdde03146101fa578063081812fc14610218578063095ea7b314610248575b600080fd5b6101ac60048036038101906101a79190612285565b61059a565b005b6101c860048036038101906101c39190612285565b6106ce565b005b6101e460048036038101906101df919061230a565b610803565b6040516101f19190612352565b60405180910390f35b6102026108e5565b60405161020f91906123fd565b60405180910390f35b610232600480360381019061022d9190612285565b610977565b60405161023f9190612460565b60405180910390f35b610262600480360381019061025d91906124a7565b6109bd565b005b61027e600480360381019061027991906124a7565b610ad4565b60405161028b9190612352565b60405180910390f35b6102ae60048036038101906102a991906124e7565b610b3c565b005b6102ca60048036038101906102c591906124e7565b610b9c565b005b6102e660048036038101906102e19190612285565b610bbc565b6040516102f39190612549565b60405180910390f35b61031660048036038101906103119190612285565b610bd4565b6040516103239190612460565b60405180910390f35b61034660048036038101906103419190612564565b610c5a565b6040516103539190612549565b60405180910390f35b610376600480360381019061037191906124a7565b610d11565b6040516103839190612352565b60405180910390f35b6103a660048036038101906103a191906126c6565b610d40565b6040516103b39190612549565b60405180910390f35b6103c4610d72565b6040516103d191906123fd565b60405180910390f35b6103f460048036038101906103ef919061274e565b610e04565b005b610410600480360381019061040b9190612285565b610e1a565b005b61042c6004803603810190610427919061282f565b610f4f565b005b610448600480360381019061044391906124a7565b610fb1565b6040516104559190612352565b60405180910390f35b61047860048036038101906104739190612285565b610fe0565b60405161048591906123fd565b60405180910390f35b6104a860048036038101906104a391906124a7565b6110f2565b6040516104b59190612352565b60405180910390f35b6104d860048036038101906104d391906128b2565b61115a565b6040516104e59190612352565b60405180910390f35b61050860048036038101906105039190612285565b6111ee565b005b610524600480360381019061051f9190612285565b611322565b6040516105319190612549565b60405180910390f35b610554600480360381019061054f9190612285565b61133a565b6040516105619190612549565b60405180910390f35b610584600480360381019061057f9190612285565b611357565b6040516105919190612549565b60405180910390f35b600a60003373ffffffffffffffffffffffffffffffffffffffff1673ffffffffffffffffffffffffffffffffffffffff168152602001908152602001600020600082815260200190815260200160002060009054906101000a900460ff16610637576040517f08c379a000000000000000000000000000000000000000000000000000000000815260040161062e9061293e565b60405180910390fd5b600160096000838152602001908152602001600020600082825461065b919061298d565b925050819055506000600a60003373ffffffffffffffffffffffffffffffffffffffff1673ffffffffffffffffffffffffffffffffffffffff168152602001908152602001600020600083815260200190815260200160002060006101000a81548160ff02191690831515021790555050565b600860003373ffffffffffffffffffffffffffffffffffffffff1673ffffffffffffffffffffffffffffffffffffffff168152602001908152602001600020600082815260200190815260200160002060009054906101000a900460ff161561076c576040517f08c379a000000000000000000000000000000000000000000000000000000000815260040161076390612a0d565b60405180910390fd5b60016007600083815260200190815260200160002060008282546107909190612a2d565b925050819055506001600860003373ffffffffffffffffffffffffffffffffffffffff1673ffffffffffffffffffffffffffffffffffffffff168152602001908152602001600020600083815260200190815260200160002060006101000a81548160ff02191690831515021790555050565b60007f80ac58cd000000000000000000000000000000000000000000000000000000007bffffffffffffffffffffffffffffffffffffffffffffffffffffffff1916827bffffffffffffffffffffffffffffffffffffffffffffffffffffffff191614806108ce57507f5b5e139f000000000000000000000000000000000000000000000000000000007bffffffffffffffffffffffffffffffffffffffffffffffffffffffff1916827bffffffffffffffffffffffffffffffffffffffffffffffffffffffff1916145b806108de57506108dd82611374565b5b9050919050565b6060600080546108f490612a90565b80601f016020809104026020016040519081016040528092919081815260200182805461092090612a90565b801561096d5780601f106109425761010080835404028352916020019161096d565b820191906000526020600020905b81548152906001019060200180831161095057829003601f168201915b5050505050905090565b6000610982826113de565b6004600083815260200190815260200160002060009054906101000a900473ffffffffffffffffffffffffffffffffffffffff169050919050565b60006109c882610bd4565b90508073ffffffffffffffffffffffffffffffffffffffff168373ffffffffffffffffffffffffffffffffffffffff1603610a38576040517f08c379a0000000000000000000000000000000000000000000000000000000008152600401610a2f90612b33565b60405180910390fd5b8073ffffffffffffffffffffffffffffffffffffffff16610a57611429565b73ffffffffffffffffffffffffffffffffffffffff161480610a865750610a8581610a80611429565b61115a565b5b610ac5576040517f08c379a0000000000000000000000000000000000000000000000000000000008152600401610abc90612bc5565b60405180910390fd5b610acf8383611431565b505050565b6000600860008473ffffffffffffffffffffffffffffffffffffffff1673ffffffffffffffffffffffffffffffffffffffff168152602001908152602001600020600083815260200190815260200160002060009054906101000a900460ff16905092915050565b610b4d610b47611429565b826114ea565b610b8c576040517f08c379a0000000000000000000000000000000000000000000000000000000008152600401610b8390612c57565b60405180910390fd5b610b9783838361157f565b505050565b610bb783838360405180602001604052806000815250610f4f565b505050565b60076020528060005260406000206000915090505481565b600080610be083611878565b9050600073ffffffffffffffffffffffffffffffffffffffff168173ffffffffffffffffffffffffffffffffffffffff1603610c51576040517f08c379a0000000000000000000000000000000000000000000000000000000008152600401610c4890612cc3565b60405180910390fd5b80915050919050565b60008073ffffffffffffffffffffffffffffffffffffffff168273ffffffffffffffffffffffffffffffffffffffff1603610cca576040517f08c379a0000000000000000000000000000000000000000000000000000000008152600401610cc190612d55565b60405180910390fd5b600360008373ffffffffffffffffffffffffffffffffffffffff1673ffffffffffffffffffffffffffffffffffffffff168152602001908152602001600020549050919050565b600a6020528160005260406000206020528060005260406000206000915091509054906101000a900460ff1681565b6000610d4c600b6118b5565b9050610d5883826118c3565b610d6281836118e1565b610d6c600b61194e565b92915050565b606060018054610d8190612a90565b80601f0160208091040260200160405190810160405280929190818152602001828054610dad90612a90565b8015610dfa5780601f10610dcf57610100808354040283529160200191610dfa565b820191906000526020600020905b815481529060010190602001808311610ddd57829003601f168201915b5050505050905090565b610e16610e0f611429565b8383611964565b5050565b600a60003373ffffffffffffffffffffffffffffffffffffffff1673ffffffffffffffffffffffffffffffffffffffff168152602001908152602001600020600082815260200190815260200160002060009054906101000a900460ff1615610eb8576040517f08c379a0000000000000000000000000000000000000000000000000000000008152600401610eaf90612dc1565b60405180910390fd5b6001600960008381526020019081526020016000206000828254610edc9190612a2d565b925050819055506001600a60003373ffffffffffffffffffffffffffffffffffffffff1673ffffffffffffffffffffffffffffffffffffffff168152602001908152602001600020600083815260200190815260200160002060006101000a81548160ff02191690831515021790555050565b610f60610f5a611429565b836114ea565b610f9f576040517f08c379a0000000000000000000000000000000000000000000000000000000008152600401610f9690612c57565b60405180910390fd5b610fab84848484611ad0565b50505050565b60086020528160005260406000206020528060005260406000206000915091509054906101000a900460ff1681565b6060610feb826113de565b600060066000848152602001908152602001600020805461100b90612a90565b80601f016020809104026020016040519081016040528092919081815260200182805461103790612a90565b80156110845780601f1061105957610100808354040283529160200191611084565b820191906000526020600020905b81548152906001019060200180831161106757829003601f168201915b505050505090506000611095611b2c565b905060008151036110aa5781925050506110ed565b6000825111156110df5780826040516020016110c7929190612e1d565b604051602081830303815290604052925050506110ed565b6110e884611b43565b925050505b919050565b6000600a60008473ffffffffffffffffffffffffffffffffffffffff1673ffffffffffffffffffffffffffffffffffffffff168152602001908152602001600020600083815260200190815260200160002060009054906101000a900460ff16905092915050565b6000600560008473ffffffffffffffffffffffffffffffffffffffff1673ffffffffffffffffffffffffffffffffffffffff16815260200190815260200160002060008373ffffffffffffffffffffffffffffffffffffffff1673ffffffffffffffffffffffffffffffffffffffff16815260200190815260200160002060009054906101000a900460ff16905092915050565b600860003373ffffffffffffffffffffffffffffffffffffffff1673ffffffffffffffffffffffffffffffffffffffff168152602001908152602001600020600082815260200190815260200160002060009054906101000a900460ff1661128b576040517f08c379a000000000000000000000000000000000000000000000000000000000815260040161128290612e8d565b60405180910390fd5b60016007600083815260200190815260200160002060008282546112af919061298d565b925050819055506000600860003373ffffffffffffffffffffffffffffffffffffffff1673ffffffffffffffffffffffffffffffffffffffff168152602001908152602001600020600083815260200190815260200160002060006101000a81548160ff02191690831515021790555050565b60096020528060005260406000206000915090505481565b600060076000838152602001908152602001600020549050919050565b600060096000838152602001908152602001600020549050919050565b60007f01ffc9a7000000000000000000000000000000000000000000000000000000007bffffffffffffffffffffffffffffffffffffffffffffffffffffffff1916827bffffffffffffffffffffffffffffffffffffffffffffffffffffffff1916149050919050565b6113e781611bab565b611426576040517f08c379a000000000000000000000000000000000000000000000000000000000815260040161141d90612cc3565b60405180910390fd5b50565b600033905090565b816004600083815260200190815260200160002060006101000a81548173ffffffffffffffffffffffffffffffffffffffff021916908373ffffffffffffffffffffffffffffffffffffffff160217905550808273ffffffffffffffffffffffffffffffffffffffff166114a483610bd4565b73ffffffffffffffffffffffffffffffffffffffff167f8c5be1e5ebec7d5bd14f71427d1e84f3dd0314c0f7b2291e5b200ac8c7c3b92560405160405180910390a45050565b6000806114f683610bd4565b90508073ffffffffffffffffffffffffffffffffffffffff168473ffffffffffffffffffffffffffffffffffffffff1614806115385750611537818561115a565b5b8061157657508373ffffffffffffffffffffffffffffffffffffffff1661155e84610977565b73ffffffffffffffffffffffffffffffffffffffff16145b91505092915050565b8273ffffffffffffffffffffffffffffffffffffffff1661159f82610bd4565b73ffffffffffffffffffffffffffffffffffffffff16146115f5576040517f08c379a00000000000000000000000000000000000000000000000000000000081526004016115ec90612f1f565b60405180910390fd5b600073ffffffffffffffffffffffffffffffffffffffff168273ffffffffffffffffffffffffffffffffffffffff1603611664576040517f08c379a000000000000000000000000000000000000000000000000000000000815260040161165b90612fb1565b60405180910390fd5b6116718383836001611bec565b8273ffffffffffffffffffffffffffffffffffffffff1661169182610bd4565b73ffffffffffffffffffffffffffffffffffffffff16146116e7576040517f08c379a00000000000000000000000000000000000000000000000000000000081526004016116de90612f1f565b60405180910390fd5b6004600082815260200190815260200160002060006101000a81549073ffffffffffffffffffffffffffffffffffffffff02191690556001600360008573ffffffffffffffffffffffffffffffffffffffff1673ffffffffffffffffffffffffffffffffffffffff168152602001908152602001600020600082825403925050819055506001600360008473ffffffffffffffffffffffffffffffffffffffff1673ffffffffffffffffffffffffffffffffffffffff16815260200190815260200160002060008282540192505081905550816002600083815260200190815260200160002060006101000a81548173ffffffffffffffffffffffffffffffffffffffff021916908373ffffffffffffffffffffffffffffffffffffffff160217905550808273ffffffffffffffffffffffffffffffffffffffff168473ffffffffffffffffffffffffffffffffffffffff167fddf252ad1be2c89b69c2b068fc378daa952ba7f163c4a11628f55a4df523b3ef60405160405180910390a46118738383836001611bf2565b505050565b60006002600083815260200190815260200160002060009054906101000a900473ffffffffffffffffffffffffffffffffffffffff169050919050565b600081600001549050919050565b6118dd828260405180602001604052806000815250611bf8565b5050565b6118ea82611bab565b611929576040517f08c379a000000000000000000000000000000000000000000000000000000000815260040161192090613043565b60405180910390fd5b80600660008481526020019081526020016000209081611949919061320f565b505050565b6001816000016000828254019250508190555050565b8173ffffffffffffffffffffffffffffffffffffffff168373ffffffffffffffffffffffffffffffffffffffff16036119d2576040517f08c379a00000000000000000000000000000000000000000000000000000000081526004016119c99061332d565b60405180910390fd5b80600560008573ffffffffffffffffffffffffffffffffffffffff1673ffffffffffffffffffffffffffffffffffffffff16815260200190815260200160002060008473ffffffffffffffffffffffffffffffffffffffff1673ffffffffffffffffffffffffffffffffffffffff16815260200190815260200160002060006101000a81548160ff0219169083151502179055508173ffffffffffffffffffffffffffffffffffffffff168373ffffffffffffffffffffffffffffffffffffffff167f17307eab39ab6107e8899845ad3d59bd9653f200f220920489ca2b5937696c3183604051611ac39190612352565b60405180910390a3505050565b611adb84848461157f565b611ae784848484611c53565b611b26576040517f08c379a0000000000000000000000000000000000000000000000000000000008152600401611b1d906133bf565b60405180910390fd5b50505050565b606060405180602001604052806000815250905090565b6060611b4e826113de565b6000611b58611b2c565b90506000815111611b785760405180602001604052806000815250611ba3565b80611b8284611dda565b604051602001611b93929190612e1d565b6040516020818303038152906040525b915050919050565b60008073ffffffffffffffffffffffffffffffffffffffff16611bcd83611878565b73ffffffffffffffffffffffffffffffffffffffff1614159050919050565b50505050565b50505050565b611c028383611ea8565b611c0f6000848484611c53565b611c4e576040517f08c379a0000000000000000000000000000000000000000000000000000000008152600401611c45906133bf565b60405180910390fd5b505050565b6000611c748473ffffffffffffffffffffffffffffffffffffffff166120c5565b15611dcd578373ffffffffffffffffffffffffffffffffffffffff1663150b7a02611c9d611429565b8786866040518563ffffffff1660e01b8152600401611cbf9493929190613434565b6020604051808303816000875af1925050508015611cfb57506040513d601f19601f82011682018060405250810190611cf89190613495565b60015b611d7d573d8060008114611d2b576040519150601f19603f3d011682016040523d82523d6000602084013e611d30565b606091505b506000815103611d75576040517f08c379a0000000000000000000000000000000000000000000000000000000008152600401611d6c906133bf565b60405180910390fd5b805181602001fd5b63150b7a0260e01b7bffffffffffffffffffffffffffffffffffffffffffffffffffffffff1916817bffffffffffffffffffffffffffffffffffffffffffffffffffffffff191614915050611dd2565b600190505b949350505050565b606060006001611de9846120e8565b01905060008167ffffffffffffffff811115611e0857611e0761259b565b5b6040519080825280601f01601f191660200182016040528015611e3a5781602001600182028036833780820191505090505b509050600082602001820190505b600115611e9d578080600190039150507f3031323334353637383961626364656600000000000000000000000000000000600a86061a8153600a8581611e9157611e906134c2565b5b04945060008503611e48575b819350505050919050565b600073ffffffffffffffffffffffffffffffffffffffff168273ffffffffffffffffffffffffffffffffffffffff1603611f17576040517f08c379a0000000000000000000000000000000000000000000000000000000008152600401611f0e9061353d565b60405180910390fd5b611f2081611bab565b15611f60576040517f08c379a0000000000000000000000000000000000000000000000000000000008152600401611f57906135a9565b60405180910390fd5b611f6e600083836001611bec565b611f7781611bab565b15611fb7576040517f08c379a0000000000000000000000000000000000000000000000000000000008152600401611fae906135a9565b60405180910390fd5b6001600360008473ffffffffffffffffffffffffffffffffffffffff1673ffffffffffffffffffffffffffffffffffffffff16815260200190815260200160002060008282540192505081905550816002600083815260200190815260200160002060006101000a81548173ffffffffffffffffffffffffffffffffffffffff021916908373ffffffffffffffffffffffffffffffffffffffff160217905550808273ffffffffffffffffffffffffffffffffffffffff16600073ffffffffffffffffffffffffffffffffffffffff167fddf252ad1be2c89b69c2b068fc378daa952ba7f163c4a11628f55a4df523b3ef60405160405180910390a46120c1600083836001611bf2565b5050565b6000808273ffffffffffffffffffffffffffffffffffffffff163b119050919050565b600080600090507a184f03e93ff9f4daa797ed6e38ed64bf6a1f0100000000000000008310612146577a184f03e93ff9f4daa797ed6e38ed64bf6a1f010000000000000000838161213c5761213b6134c2565b5b0492506040810190505b6d04ee2d6d415b85acef81000000008310612183576d04ee2d6d415b85acef81000000008381612179576121786134c2565b5b0492506020810190505b662386f26fc1000083106121b257662386f26fc1000083816121a8576121a76134c2565b5b0492506010810190505b6305f5e10083106121db576305f5e10083816121d1576121d06134c2565b5b0492506008810190505b61271083106122005761271083816121f6576121f56134c2565b5b0492506004810190505b606483106122235760648381612219576122186134c2565b5b0492506002810190505b600a8310612232576001810190505b80915050919050565b6000604051905090565b600080fd5b600080fd5b6000819050919050565b6122628161224f565b811461226d57600080fd5b50565b60008135905061227f81612259565b92915050565b60006020828403121561229b5761229a612245565b5b60006122a984828501612270565b91505092915050565b60007fffffffff0000000000000000000000000000000000000000000000000000000082169050919050565b6122e7816122b2565b81146122f257600080fd5b50565b600081359050612304816122de565b92915050565b6000602082840312156123205761231f612245565b5b600061232e848285016122f5565b91505092915050565b60008115159050919050565b61234c81612337565b82525050565b60006020820190506123676000830184612343565b92915050565b600081519050919050565b600082825260208201905092915050565b60005b838110156123a757808201518184015260208101905061238c565b60008484015250505050565b6000601f19601f8301169050919050565b60006123cf8261236d565b6123d98185612378565b93506123e9818560208601612389565b6123f2816123b3565b840191505092915050565b6000602082019050818103600083015261241781846123c4565b905092915050565b600073ffffffffffffffffffffffffffffffffffffffff82169050919050565b600061244a8261241f565b9050919050565b61245a8161243f565b82525050565b60006020820190506124756000830184612451565b92915050565b6124848161243f565b811461248f57600080fd5b50565b6000813590506124a18161247b565b92915050565b600080604083850312156124be576124bd612245565b5b60006124cc85828601612492565b92505060206124dd85828601612270565b9150509250929050565b600080600060608486031215612500576124ff612245565b5b600061250e86828701612492565b935050602061251f86828701612492565b925050604061253086828701612270565b9150509250925092565b6125438161224f565b82525050565b600060208201905061255e600083018461253a565b92915050565b60006020828403121561257a57612579612245565b5b600061258884828501612492565b91505092915050565b600080fd5b600080fd5b7f4e487b7100000000000000000000000000000000000000000000000000000000600052604160045260246000fd5b6125d3826123b3565b810181811067ffffffffffffffff821117156125f2576125f161259b565b5b80604052505050565b600061260561223b565b905061261182826125ca565b919050565b600067ffffffffffffffff8211156126315761263061259b565b5b61263a826123b3565b9050602081019050919050565b82818337600083830152505050565b600061266961266484612616565b6125fb565b90508281526020810184848401111561268557612684612596565b5b612690848285612647565b509392505050565b600082601f8301126126ad576126ac612591565b5b81356126bd848260208601612656565b91505092915050565b600080604083850312156126dd576126dc612245565b5b60006126eb85828601612492565b925050602083013567ffffffffffffffff81111561270c5761270b61224a565b5b61271885828601612698565b9150509250929050565b61272b81612337565b811461273657600080fd5b50565b60008135905061274881612722565b92915050565b6000806040838503121561276557612764612245565b5b600061277385828601612492565b925050602061278485828601612739565b9150509250929050565b600067ffffffffffffffff8211156127a9576127a861259b565b5b6127b2826123b3565b9050602081019050919050565b60006127d26127cd8461278e565b6125fb565b9050828152602081018484840111156127ee576127ed612596565b5b6127f9848285612647565b509392505050565b600082601f83011261281657612815612591565b5b81356128268482602086016127bf565b91505092915050565b6000806000806080858703121561284957612848612245565b5b600061285787828801612492565b945050602061286887828801612492565b935050604061287987828801612270565b925050606085013567ffffffffffffffff81111561289a5761289961224a565b5b6128a687828801612801565b91505092959194509250565b600080604083850312156128c9576128c8612245565b5b60006128d785828601612492565b92505060206128e885828601612492565b9150509250929050565b7f4d6f6f6e50696e3a20686173206e6f742070696e6e6564000000000000000000600082015250565b6000612928601783612378565b9150612933826128f2565b602082019050919050565b600060208201905081810360008301526129578161291b565b9050919050565b7f4e487b7100000000000000000000000000000000000000000000000000000000600052601160045260246000fd5b60006129988261224f565b91506129a38361224f565b92508282039050818111156129bb576129ba61295e565b5b92915050565b7f4d6f6f6e50696e3a20616c726561647920766f74656400000000000000000000600082015250565b60006129f7601683612378565b9150612a02826129c1565b602082019050919050565b60006020820190508181036000830152612a26816129ea565b9050919050565b6000612a388261224f565b9150612a438361224f565b9250828201905080821115612a5b57612a5a61295e565b5b92915050565b7f4e487b7100000000000000000000000000000000000000000000000000000000600052602260045260246000fd5b60006002820490506001821680612aa857607f821691505b602082108103612abb57612aba612a61565b5b50919050565b7f4552433732313a20617070726f76616c20746f2063757272656e74206f776e6560008201527f7200000000000000000000000000000000000000000000000000000000000000602082015250565b6000612b1d602183612378565b9150612b2882612ac1565b604082019050919050565b60006020820190508181036000830152612b4c81612b10565b9050919050565b7f4552433732313a20617070726f76652063616c6c6572206973206e6f7420746f60008201527f6b656e206f776e6572206f7220617070726f76656420666f7220616c6c000000602082015250565b6000612baf603d83612378565b9150612bba82612b53565b604082019050919050565b60006020820190508181036000830152612bde81612ba2565b9050919050565b7f4552433732313a2063616c6c6572206973206e6f7420746f6b656e206f776e6560008201527f72206f7220617070726f76656400000000000000000000000000000000000000602082015250565b6000612c41602d83612378565b9150612c4c82612be5565b604082019050919050565b60006020820190508181036000830152612c7081612c34565b9050919050565b7f4552433732313a20696e76616c696420746f6b656e2049440000000000000000600082015250565b6000612cad601883612378565b9150612cb882612c77565b602082019050919050565b60006020820190508181036000830152612cdc81612ca0565b9050919050565b7f4552433732313a2061646472657373207a65726f206973206e6f74206120766160008201527f6c6964206f776e65720000000000000000000000000000000000000000000000602082015250565b6000612d3f602983612378565b9150612d4a82612ce3565b604082019050919050565b60006020820190508181036000830152612d6e81612d32565b9050919050565b7f4d6f6f6e50696e3a20616c72656164792070696e6e6564000000000000000000600082015250565b6000612dab601783612378565b9150612db682612d75565b602082019050919050565b60006020820190508181036000830152612dda81612d9e565b9050919050565b600081905092915050565b6000612df78261236d565b612e018185612de1565b9350612e11818560208601612389565b80840191505092915050565b6000612e298285612dec565b9150612e358284612dec565b91508190509392505050565b7f4d6f6f6e50696e3a20686173206e6f7420766f74656400000000000000000000600082015250565b6000612e77601683612378565b9150612e8282612e41565b602082019050919050565b60006020820190508181036000830152612ea681612e6a565b9050919050565b7f4552433732313a207472616e736665722066726f6d20696e636f72726563742060008201527f6f776e6572000000000000000000000000000000000000000000000000000000602082015250565b6000612f09602583612378565b9150612f1482612ead565b604082019050919050565b60006020820190508181036000830152612f3881612efc565b9050919050565b7f4552433732313a207472616e7366657220746f20746865207a65726f2061646460008201527f7265737300000000000000000000000000000000000000000000000000000000602082015250565b6000612f9b602483612378565b9150612fa682612f3f565b604082019050919050565b60006020820190508181036000830152612fca81612f8e565b9050919050565b7f45524337323155524953746f726167653a2055524920736574206f66206e6f6e60008201527f6578697374656e7420746f6b656e000000000000000000000000000000000000602082015250565b600061302d602e83612378565b915061303882612fd1565b604082019050919050565b6000602082019050818103600083015261305c81613020565b9050919050565b60008190508160005260206000209050919050565b60006020601f8301049050919050565b600082821b905092915050565b6000600883026130c57fffffffffffffffffffffffffffffffffffffffffffffffffffffffffffffffff82613088565b6130cf8683613088565b95508019841693508086168417925050509392505050565b6000819050919050565b600061310c6131076131028461224f565b6130e7565b61224f565b9050919050565b6000819050919050565b613126836130f1565b61313a61313282613113565b848454613095565b825550505050565b600090565b61314f613142565b61315a81848461311d565b505050565b5b8181101561317e57613173600082613147565b600181019050613160565b5050565b601f8211156131c35761319481613063565b61319d84613078565b810160208510156131ac578190505b6131c06131b885613078565b83018261315f565b50505b505050565b600082821c905092915050565b60006131e6600019846008026131c8565b1980831691505092915050565b60006131ff83836131d5565b9150826002028217905092915050565b6132188261236d565b67ffffffffffffffff8111156132315761323061259b565b5b61323b8254612a90565b613246828285613182565b600060209050601f8311600181146132795760008415613267578287015190505b61327185826131f3565b8655506132d9565b601f19841661328786613063565b60005b828110156132af5784890151825560018201915060208501945060208101905061328a565b868310156132cc57848901516132c8601f8916826131d5565b8355505b6001600288020188555050505b505050505050565b7f4552433732313a20617070726f766520746f2063616c6c657200000000000000600082015250565b6000613317601983612378565b9150613322826132e1565b602082019050919050565b600060208201905081810360008301526133468161330a565b9050919050565b7f4552433732313a207472616e7366657220746f206e6f6e20455243373231526560008201527f63656976657220696d706c656d656e7465720000000000000000000000000000602082015250565b60006133a9603283612378565b91506133b48261334d565b604082019050919050565b600060208201905081810360008301526133d88161339c565b9050919050565b600081519050919050565b600082825260208201905092915050565b6000613406826133df565b61341081856133ea565b9350613420818560208601612389565b613429816123b3565b840191505092915050565b60006080820190506134496000830187612451565b6134566020830186612451565b613463604083018561253a565b818103606083015261347581846133fb565b905095945050505050565b60008151905061348f816122de565b92915050565b6000602082840312156134ab576134aa612245565b5b60006134b984828501613480565b91505092915050565b7f4e487b7100000000000000000000000000000000000000000000000000000000600052601260045260246000fd5b7f4552433732313a206d696e7420746f20746865207a65726f2061646472657373600082015250565b6000613527602083612378565b9150613532826134f1565b602082019050919050565b600060208201905081810360008301526135568161351a565b9050919050565b7f4552433732313a20746f6b656e20616c7265616479206d696e74656400000000600082015250565b6000613593601c83612378565b915061359e8261355d565b602082019050919050565b600060208201905081810360008301526135c281613586565b905091905056fea2646970667358221220160f8ea228c0dc71f77f18488e051b830c87e47c66622ae0423beb207f27b8a664736f6c63430008120033",
  "linkReferences": {},
  "deployedLinkReferences": {}
}