{
  "_format": "hh-sol-artifact-1",
  "contractName": "MoonBoard",
  "sourceName": "src/MoonBoard.sol",
  "abi": [
    {
      "inputs": [
        {
          "internalType": "address",
          "name": "_moonpinContract",
          "type": "address"
        }
      ],
      "stateMutability": "nonpayable",
      "type": "constructor"
    },
    {
      "inputs": [
        {
          "internalType": "uint256",
          "name": "",
          "type": "uint256"
        }
      ],
      "name": "addressesWithMoonboards",
      "outputs": [
        {
          "internalType": "address",
          "name": "",
          "type": "address"
        }
      ],
      "stateMutability": "view",
      "type": "function"
    },
    {
      "inputs": [
        {
          "internalType": "string",
          "name": "name",
          "type": "string"
        },
        {
          "internalType": "string[]",
          "name": "tokenURIs",
          "type": "string[]"
        }
      ],
      "name": "createMoonboard",
      "outputs": [
        {
          "internalType": "uint256",
          "name": "",
          "type": "uint256"
        }
      ],
      "stateMutability": "nonpayable",
      "type": "function"
    },
    {
      "inputs": [],
      "name": "creatorPinCut",
      "outputs": [
        {
          "internalType": "uint256",
          "name": "",
          "type": "uint256"
        }
      ],
      "stateMutability": "view",
      "type": "function"
    },
    {
      "inputs": [
        {
          "internalType": "uint256",
          "name": "index",
          "type": "uint256"
        }
      ],
      "name": "deleteMoonboard",
      "outputs": [],
      "stateMutability": "nonpayable",
      "type": "function"
    },
    {
      "inputs": [],
      "name": "denominator",
      "outputs": [
        {
          "internalType": "uint256",
          "name": "",
          "type": "uint256"
        }
      ],
      "stateMutability": "view",
      "type": "function"
    },
    {
      "inputs": [],
      "name": "getAllMoonboards",
      "outputs": [
        {
          "components": [
            {
              "internalType": "string",
              "name": "name",
              "type": "string"
            },
            {
              "internalType": "uint256[]",
              "name": "moonpinIds",
              "type": "uint256[]"
            },
            {
              "internalType": "uint256[]",
              "name": "externalMoonpinIds",
              "type": "uint256[]"
            },
            {
              "internalType": "address",
              "name": "owner",
              "type": "address"
            },
            {
              "internalType": "uint256",
              "name": "votes",
              "type": "uint256"
            },
            {
              "internalType": "uint256",
              "name": "pins",
              "type": "uint256"
            }
          ],
          "internalType": "struct MoonBoard.BoardWithMetadata[]",
          "name": "",
          "type": "tuple[]"
        }
      ],
      "stateMutability": "view",
      "type": "function"
    },
    {
      "inputs": [
        {
          "internalType": "address",
          "name": "owner",
          "type": "address"
        },
        {
          "internalType": "uint256",
          "name": "index",
          "type": "uint256"
        }
      ],
      "name": "getMoonboard",
      "outputs": [
        {
          "components": [
            {
              "internalType": "string",
              "name": "name",
              "type": "string"
            },
            {
              "internalType": "uint256[]",
              "name": "moonpinIds",
              "type": "uint256[]"
            },
            {
              "internalType": "uint256[]",
              "name": "externalMoonpinIds",
              "type": "uint256[]"
            },
            {
              "internalType": "address",
              "name": "owner",
              "type": "address"
            },
            {
              "internalType": "uint256",
              "name": "votes",
              "type": "uint256"
            },
            {
              "internalType": "uint256",
              "name": "pins",
              "type": "uint256"
            }
          ],
          "internalType": "struct MoonBoard.BoardWithMetadata",
          "name": "",
          "type": "tuple"
        }
      ],
      "stateMutability": "view",
      "type": "function"
    },
    {
      "inputs": [
        {
          "internalType": "address",
          "name": "owner",
          "type": "address"
        }
      ],
      "name": "getMoonboards",
      "outputs": [
        {
          "components": [
            {
              "internalType": "string",
              "name": "name",
              "type": "string"
            },
            {
              "internalType": "uint256[]",
              "name": "moonpinIds",
              "type": "uint256[]"
            },
            {
              "internalType": "uint256[]",
              "name": "externalMoonpinIds",
              "type": "uint256[]"
            },
            {
              "internalType": "address",
              "name": "owner",
              "type": "address"
            },
            {
              "internalType": "uint256",
              "name": "votes",
              "type": "uint256"
            },
            {
              "internalType": "uint256",
              "name": "pins",
              "type": "uint256"
            }
          ],
          "internalType": "struct MoonBoard.BoardWithMetadata[]",
          "name": "",
          "type": "tuple[]"
        }
      ],
      "stateMutability": "view",
      "type": "function"
    },
    {
      "inputs": [
        {
          "internalType": "address",
          "name": "",
          "type": "address"
        }
      ],
      "name": "hasMoonboard",
      "outputs": [
        {
          "internalType": "bool",
          "name": "",
          "type": "bool"
        }
      ],
      "stateMutability": "view",
      "type": "function"
    },
    {
      "inputs": [
        {
          "internalType": "address",
          "name": "",
          "type": "address"
        },
        {
          "internalType": "uint256",
          "name": "",
          "type": "uint256"
        }
      ],
      "name": "moonboards",
      "outputs": [
        {
          "internalType": "string",
          "name": "name",
          "type": "string"
        },
        {
          "internalType": "address",
          "name": "owner",
          "type": "address"
        }
      ],
      "stateMutability": "view",
      "type": "function"
    },
    {
      "inputs": [],
      "name": "moonpinContract",
      "outputs": [
        {
          "internalType": "address",
          "name": "",
          "type": "address"
        }
      ],
      "stateMutability": "view",
      "type": "function"
    },
    {
      "inputs": [],
      "name": "numMoonboards",
      "outputs": [
        {
          "internalType": "uint256",
          "name": "",
          "type": "uint256"
        }
      ],
      "stateMutability": "view",
      "type": "function"
    },
    {
      "inputs": [
        {
          "internalType": "address",
          "name": "",
          "type": "address"
        }
      ],
      "name": "payoutApecoin",
      "outputs": [
        {
          "internalType": "bool",
          "name": "",
          "type": "bool"
        }
      ],
      "stateMutability": "view",
      "type": "function"
    },
    {
      "inputs": [
        {
          "internalType": "address",
          "name": "sourceBoardOwner",
          "type": "address"
        },
        {
          "internalType": "uint256",
          "name": "sourceMonnpinId",
          "type": "uint256"
        },
        {
          "internalType": "uint256",
          "name": "targetBoardIndex",
          "type": "uint256"
        }
      ],
      "name": "pinToBoard",
      "outputs": [],
      "stateMutability": "nonpayable",
      "type": "function"
    },
    {
      "inputs": [
        {
          "internalType": "uint256",
          "name": "sourceMonnpinId",
          "type": "uint256"
        },
        {
          "internalType": "uint256",
          "name": "targetBoardIndex",
          "type": "uint256"
        }
      ],
      "name": "unpinFromBoard",
      "outputs": [],
      "stateMutability": "nonpayable",
      "type": "function"
    },
    {
      "inputs": [
        {
          "internalType": "uint256",
          "name": "index",
          "type": "uint256"
        },
        {
          "internalType": "string",
          "name": "name",
          "type": "string"
        }
      ],
      "name": "updateMoonboardName",
      "outputs": [],
      "stateMutability": "nonpayable",
      "type": "function"
    },
    {
      "inputs": [
        {
          "internalType": "address payable",
          "name": "recipient",
          "type": "address"
        },
        {
          "internalType": "uint256",
          "name": "amount",
          "type": "uint256"
        }
      ],
      "name": "withdraw",
      "outputs": [],
      "stateMutability": "nonpayable",
      "type": "function"
    }
  ],
  "bytecode": "0x60a06040523373ffffffffffffffffffffffffffffffffffffffff1660809073ffffffffffffffffffffffffffffffffffffffff16815250604b60015560646002553480156200004e57600080fd5b506040516200329338038062003293833981810160405281019062000074919062000125565b806000806101000a81548173ffffffffffffffffffffffffffffffffffffffff021916908373ffffffffffffffffffffffffffffffffffffffff1602179055505062000157565b600080fd5b600073ffffffffffffffffffffffffffffffffffffffff82169050919050565b6000620000ed82620000c0565b9050919050565b620000ff81620000e0565b81146200010b57600080fd5b50565b6000815190506200011f81620000f4565b92915050565b6000602082840312156200013e576200013d620000bb565b5b60006200014e848285016200010e565b91505092915050565b60805161312062000173600039600061187201526131206000f3fe608060405234801561001057600080fd5b506004361061010b5760003560e01c806393439ac5116100a2578063a07894d711610071578063a07894d7146102cd578063b8149edf146102fd578063c91463c11461031b578063d1ba411e1461034b578063f3fef3a3146103675761010b565b806393439ac51461023257806393a3f5cc1461026257806396ce07951461027e5780639ac40c241461029c5761010b565b80633a470e74116100de5780633a470e74146101965780633d4aec92146101c6578063532437bf146101f657806360eaa076146102145761010b565b80630729dbba146101105780630ac4f17d1461012e5780631ea9ead01461014a5780631eb29ae214610166575b600080fd5b610118610383565b6040516101259190611fbc565b60405180910390f35b61014860048036038101906101439190612075565b610389565b005b610164600480360381019061015f919061220e565b61056f565b005b610180600480360381019061017b919061226a565b6105e3565b60405161018d91906122a6565b60405180910390f35b6101b060048036038101906101ab91906122c1565b610622565b6040516101bd9190612309565b60405180910390f35b6101e060048036038101906101db9190612324565b610642565b6040516101ed9190612547565b60405180910390f35b6101fe61085c565b60405161020b91906126c2565b60405180910390f35b61021c610bca565b6040516102299190611fbc565b60405180910390f35b61024c600480360381019061024791906122c1565b610bd0565b60405161025991906126c2565b60405180910390f35b61027c6004803603810190610277919061226a565b610e14565b005b61028661112b565b6040516102939190611fbc565b60405180910390f35b6102b660048036038101906102b19190612324565b611131565b6040516102c492919061272e565b60405180910390f35b6102e760048036038101906102e29190612844565b61121a565b6040516102f49190611fbc565b60405180910390f35b610305611669565b60405161031291906122a6565b60405180910390f35b610335600480360381019061033091906122c1565b61168d565b6040516103429190612309565b60405180910390f35b610365600480360381019061036091906128bc565b6116ad565b005b610381600480360381019061037c919061293a565b611870565b005b60065481565b60008060009054906101000a900473ffffffffffffffffffffffffffffffffffffffff1673ffffffffffffffffffffffffffffffffffffffff16636352211e846040518263ffffffff1660e01b81526004016103e59190611fbc565b602060405180830381865afa158015610402573d6000803e3d6000fd5b505050506040513d601f19601f82011682018060405250810190610426919061298f565b90506000600254600154600061043c91906129eb565b6104469190612a5c565b905060003390506000600360008373ffffffffffffffffffffffffffffffffffffffff1673ffffffffffffffffffffffffffffffffffffffff16815260200190815260200160002085815481106104a05761049f612a8d565b5b906000526020600020906004020190508060020186908060018154018082558091505060019003906000526020600020016000909190919091505560008054906101000a900473ffffffffffffffffffffffffffffffffffffffff1673ffffffffffffffffffffffffffffffffffffffff1663b2e8ef1a876040518263ffffffff1660e01b81526004016105349190611fbc565b600060405180830381600087803b15801561054e57600080fd5b505af1158015610562573d6000803e3d6000fd5b5050505050505050505050565b80600360003373ffffffffffffffffffffffffffffffffffffffff1673ffffffffffffffffffffffffffffffffffffffff16815260200190815260200160002083815481106105c1576105c0612a8d565b5b906000526020600020906004020160000190816105de9190612cc8565b505050565b600581815481106105f357600080fd5b906000526020600020016000915054906101000a900473ffffffffffffffffffffffffffffffffffffffff1681565b60046020528060005260406000206000915054906101000a900460ff1681565b61064a611dfc565b610854600360008573ffffffffffffffffffffffffffffffffffffffff1673ffffffffffffffffffffffffffffffffffffffff168152602001908152602001600020838154811061069e5761069d612a8d565b5b90600052602060002090600402016040518060800160405290816000820180546106c790612aeb565b80601f01602080910402602001604051908101604052809291908181526020018280546106f390612aeb565b80156107405780601f1061071557610100808354040283529160200191610740565b820191906000526020600020905b81548152906001019060200180831161072357829003601f168201915b505050505081526020016001820180548060200260200160405190810160405280929190818152602001828054801561079857602002820191906000526020600020905b815481526020019060010190808311610784575b50505050508152602001600282018054806020026020016040519081016040528092919081815260200182805480156107f057602002820191906000526020600020905b8154815260200190600101908083116107dc575b505050505081526020016003820160009054906101000a900473ffffffffffffffffffffffffffffffffffffffff1673ffffffffffffffffffffffffffffffffffffffff1673ffffffffffffffffffffffffffffffffffffffff1681525050611949565b905092915050565b6060600060065467ffffffffffffffff81111561087c5761087b6120e3565b5b6040519080825280602002602001820160405280156108b557816020015b6108a2611e48565b81526020019060019003908161089a5790505b5090506000805b600580549050811015610bb9576000600582815481106108df576108de612a8d565b5b9060005260206000200160009054906101000a900473ffffffffffffffffffffffffffffffffffffffff1690506000600360008373ffffffffffffffffffffffffffffffffffffffff1673ffffffffffffffffffffffffffffffffffffffff168152602001908152602001600020805480602002602001604051908101604052809291908181526020016000905b82821015610b3757838290600052602060002090600402016040518060800160405290816000820180546109a090612aeb565b80601f01602080910402602001604051908101604052809291908181526020018280546109cc90612aeb565b8015610a195780601f106109ee57610100808354040283529160200191610a19565b820191906000526020600020905b8154815290600101906020018083116109fc57829003601f168201915b5050505050815260200160018201805480602002602001604051908101604052809291908181526020018280548015610a7157602002820191906000526020600020905b815481526020019060010190808311610a5d575b5050505050815260200160028201805480602002602001604051908101604052809291908181526020018280548015610ac957602002820191906000526020600020905b815481526020019060010190808311610ab5575b505050505081526020016003820160009054906101000a900473ffffffffffffffffffffffffffffffffffffffff1673ffffffffffffffffffffffffffffffffffffffff1673ffffffffffffffffffffffffffffffffffffffff16815250508152602001906001019061096d565b50505050905060005b8151811015610ba357818181518110610b5c57610b5b612a8d565b5b6020026020010151868681518110610b7757610b76612a8d565b5b60200260200101819052508480610b8d90612d9a565b9550508080610b9b90612d9a565b915050610b40565b5050508080610bb190612d9a565b9150506108bc565b50610bc382611b4c565b9250505090565b60015481565b60606000600360008473ffffffffffffffffffffffffffffffffffffffff1673ffffffffffffffffffffffffffffffffffffffff168152602001908152602001600020805480602002602001604051908101604052809291908181526020016000905b82821015610dfd5783829060005260206000209060040201604051806080016040529081600082018054610c6690612aeb565b80601f0160208091040260200160405190810160405280929190818152602001828054610c9290612aeb565b8015610cdf5780601f10610cb457610100808354040283529160200191610cdf565b820191906000526020600020905b815481529060010190602001808311610cc257829003601f168201915b5050505050815260200160018201805480602002602001604051908101604052809291908181526020018280548015610d3757602002820191906000526020600020905b815481526020019060010190808311610d23575b5050505050815260200160028201805480602002602001604051908101604052809291908181526020018280548015610d8f57602002820191906000526020600020905b815481526020019060010190808311610d7b575b505050505081526020016003820160009054906101000a900473ffffffffffffffffffffffffffffffffffffffff1673ffffffffffffffffffffffffffffffffffffffff1673ffffffffffffffffffffffffffffffffffffffff168152505081526020019060010190610c33565b505050509050610e0c81611b4c565b915050919050565b600360003373ffffffffffffffffffffffffffffffffffffffff1673ffffffffffffffffffffffffffffffffffffffff168152602001908152602001600020805490508110610e98576040517f08c379a0000000000000000000000000000000000000000000000000000000008152600401610e8f90612e2e565b60405180910390fd5b60066000815480929190610eab90612e4e565b9190505550600360003373ffffffffffffffffffffffffffffffffffffffff1673ffffffffffffffffffffffffffffffffffffffff1681526020019081526020016000206001600360003373ffffffffffffffffffffffffffffffffffffffff1673ffffffffffffffffffffffffffffffffffffffff16815260200190815260200160002080549050610f3e9190612e77565b81548110610f4f57610f4e612a8d565b5b9060005260206000209060040201600360003373ffffffffffffffffffffffffffffffffffffffff1673ffffffffffffffffffffffffffffffffffffffff1681526020019081526020016000208281548110610fae57610fad612a8d565b5b906000526020600020906004020160008201816000019081610fd09190612ec1565b506001820181600101908054610fe7929190611e86565b506002820181600201908054610ffe929190611e86565b506003820160009054906101000a900473ffffffffffffffffffffffffffffffffffffffff168160030160006101000a81548173ffffffffffffffffffffffffffffffffffffffff021916908373ffffffffffffffffffffffffffffffffffffffff160217905550905050600360003373ffffffffffffffffffffffffffffffffffffffff1673ffffffffffffffffffffffffffffffffffffffff1681526020019081526020016000208054806110b8576110b7612fa9565b5b6001900381819060005260206000209060040201600080820160006110dd9190611ed8565b6001820160006110ed9190611f18565b6002820160006110fd9190611f18565b6003820160006101000a81549073ffffffffffffffffffffffffffffffffffffffff02191690555050905550565b60025481565b6003602052816000526040600020818154811061114d57600080fd5b90600052602060002090600402016000915091505080600001805461117190612aeb565b80601f016020809104026020016040519081016040528092919081815260200182805461119d90612aeb565b80156111ea5780601f106111bf576101008083540402835291602001916111ea565b820191906000526020600020905b8154815290600101906020018083116111cd57829003601f168201915b5050505050908060030160009054906101000a900473ffffffffffffffffffffffffffffffffffffffff16905082565b6000806040518060800160405280858152602001845167ffffffffffffffff811115611249576112486120e3565b5b6040519080825280602002602001820160405280156112775781602001602082028036833780820191505090505b508152602001600067ffffffffffffffff811115611298576112976120e3565b5b6040519080825280602002602001820160405280156112c65781602001602082028036833780820191505090505b5081526020013373ffffffffffffffffffffffffffffffffffffffff16815250905060005b83518110156113e95760008060009054906101000a900473ffffffffffffffffffffffffffffffffffffffff1673ffffffffffffffffffffffffffffffffffffffff16637b9e97513387858151811061134757611346612a8d565b5b60200260200101516040518363ffffffff1660e01b815260040161136c929190612fd8565b6020604051808303816000875af115801561138b573d6000803e3d6000fd5b505050506040513d601f19601f820116820180604052508101906113af919061301d565b905080836020015183815181106113c9576113c8612a8d565b5b6020026020010181815250505080806113e190612d9a565b9150506112eb565b50600360003373ffffffffffffffffffffffffffffffffffffffff1673ffffffffffffffffffffffffffffffffffffffff16815260200190815260200160002081908060018154018082558091505060019003906000526020600020906004020160009091909190915060008201518160000190816114689190612cc8565b506020820151816001019080519060200190611485929190611f39565b5060408201518160020190805190602001906114a2929190611f39565b5060608201518160030160006101000a81548173ffffffffffffffffffffffffffffffffffffffff021916908373ffffffffffffffffffffffffffffffffffffffff1602179055505050600460003373ffffffffffffffffffffffffffffffffffffffff1673ffffffffffffffffffffffffffffffffffffffff16815260200190815260200160002060009054906101000a900460ff166115f9576001600460003373ffffffffffffffffffffffffffffffffffffffff1673ffffffffffffffffffffffffffffffffffffffff16815260200190815260200160002060006101000a81548160ff0219169083151502179055506005339080600181540180825580915050600190039060005260206000200160009091909190916101000a81548173ffffffffffffffffffffffffffffffffffffffff021916908373ffffffffffffffffffffffffffffffffffffffff1602179055505b6006600081548092919061160c90612d9a565b91905055506001600360003373ffffffffffffffffffffffffffffffffffffffff1673ffffffffffffffffffffffffffffffffffffffff168152602001908152602001600020805490506116609190612e77565b91505092915050565b60008054906101000a900473ffffffffffffffffffffffffffffffffffffffff1681565b60076020528060005260406000206000915054906101000a900460ff1681565b60003390506000600360008373ffffffffffffffffffffffffffffffffffffffff1673ffffffffffffffffffffffffffffffffffffffff168152602001908152602001600020838154811061170557611704612a8d565b5b90600052602060002090600402019050600081600201905060005b81805490508110156117de57858282815481106117405761173f612a8d565b5b9060005260206000200154036117cb5781600183805490506117629190612e77565b8154811061177357611772612a8d565b5b906000526020600020015482828154811061179157611790612a8d565b5b9060005260206000200181905550818054806117b0576117af612fa9565b5b600190038181906000526020600020016000905590556117de565b80806117d690612d9a565b915050611720565b5060008054906101000a900473ffffffffffffffffffffffffffffffffffffffff1673ffffffffffffffffffffffffffffffffffffffff1662865798866040518263ffffffff1660e01b81526004016118379190611fbc565b600060405180830381600087803b15801561185157600080fd5b505af1158015611865573d6000803e3d6000fd5b505050505050505050565b7f000000000000000000000000000000000000000000000000000000000000000073ffffffffffffffffffffffffffffffffffffffff163373ffffffffffffffffffffffffffffffffffffffff16146118fe576040517f08c379a00000000000000000000000000000000000000000000000000000000081526004016118f590613096565b60405180910390fd5b8173ffffffffffffffffffffffffffffffffffffffff166108fc829081150290604051600060405180830381858888f19350505050158015611944573d6000803e3d6000fd5b505050565b611951611dfc565b60008060005b846020015151811015611ae95760008560200151828151811061197d5761197c612a8d565b5b6020026020010151905060008054906101000a900473ffffffffffffffffffffffffffffffffffffffff1673ffffffffffffffffffffffffffffffffffffffff1663ff981099826040518263ffffffff1660e01b81526004016119e09190611fbc565b602060405180830381865afa1580156119fd573d6000803e3d6000fd5b505050506040513d601f19601f82011682018060405250810190611a21919061301d565b84611a2c91906130b6565b935060008054906101000a900473ffffffffffffffffffffffffffffffffffffffff1673ffffffffffffffffffffffffffffffffffffffff1663ffcf5743826040518263ffffffff1660e01b8152600401611a879190611fbc565b602060405180830381865afa158015611aa4573d6000803e3d6000fd5b505050506040513d601f19601f82011682018060405250810190611ac8919061301d565b83611ad391906130b6565b9250508080611ae190612d9a565b915050611957565b5060006040518060c00160405280866000015181526020018660200151815260200186604001518152602001866060015173ffffffffffffffffffffffffffffffffffffffff168152602001848152602001838152509050809350505050919050565b60606000825167ffffffffffffffff811115611b6b57611b6a6120e3565b5b604051908082528060200260200182016040528015611ba457816020015b611b91611dfc565b815260200190600190039081611b895790505b50905060005b8351811015611df2576000848281518110611bc857611bc7612a8d565b5b6020026020010151905060008060005b836020015151811015611d6a57600084602001518281518110611bfe57611bfd612a8d565b5b6020026020010151905060008054906101000a900473ffffffffffffffffffffffffffffffffffffffff1673ffffffffffffffffffffffffffffffffffffffff1663ff981099826040518263ffffffff1660e01b8152600401611c619190611fbc565b602060405180830381865afa158015611c7e573d6000803e3d6000fd5b505050506040513d601f19601f82011682018060405250810190611ca2919061301d565b84611cad91906130b6565b935060008054906101000a900473ffffffffffffffffffffffffffffffffffffffff1673ffffffffffffffffffffffffffffffffffffffff1663ffcf5743826040518263ffffffff1660e01b8152600401611d089190611fbc565b602060405180830381865afa158015611d25573d6000803e3d6000fd5b505050506040513d601f19601f82011682018060405250810190611d49919061301d565b83611d5491906130b6565b9250508080611d6290612d9a565b915050611bd8565b506040518060c00160405280846000015181526020018460200151815260200184604001518152602001846060015173ffffffffffffffffffffffffffffffffffffffff16815260200183815260200182815250858581518110611dd157611dd0612a8d565b5b60200260200101819052505050508080611dea90612d9a565b915050611baa565b5080915050919050565b6040518060c00160405280606081526020016060815260200160608152602001600073ffffffffffffffffffffffffffffffffffffffff16815260200160008152602001600081525090565b6040518060800160405280606081526020016060815260200160608152602001600073ffffffffffffffffffffffffffffffffffffffff1681525090565b828054828255906000526020600020908101928215611ec75760005260206000209182015b82811115611ec6578254825591600101919060010190611eab565b5b509050611ed49190611f86565b5090565b508054611ee490612aeb565b6000825580601f10611ef65750611f15565b601f016020900490600052602060002090810190611f149190611f86565b5b50565b5080546000825590600052602060002090810190611f369190611f86565b50565b828054828255906000526020600020908101928215611f75579160200282015b82811115611f74578251825591602001919060010190611f59565b5b509050611f829190611f86565b5090565b5b80821115611f9f576000816000905550600101611f87565b5090565b6000819050919050565b611fb681611fa3565b82525050565b6000602082019050611fd16000830184611fad565b92915050565b6000604051905090565b600080fd5b600080fd5b600073ffffffffffffffffffffffffffffffffffffffff82169050919050565b600061201682611feb565b9050919050565b6120268161200b565b811461203157600080fd5b50565b6000813590506120438161201d565b92915050565b61205281611fa3565b811461205d57600080fd5b50565b60008135905061206f81612049565b92915050565b60008060006060848603121561208e5761208d611fe1565b5b600061209c86828701612034565b93505060206120ad86828701612060565b92505060406120be86828701612060565b9150509250925092565b600080fd5b600080fd5b6000601f19601f8301169050919050565b7f4e487b7100000000000000000000000000000000000000000000000000000000600052604160045260246000fd5b61211b826120d2565b810181811067ffffffffffffffff8211171561213a576121396120e3565b5b80604052505050565b600061214d611fd7565b90506121598282612112565b919050565b600067ffffffffffffffff821115612179576121786120e3565b5b612182826120d2565b9050602081019050919050565b82818337600083830152505050565b60006121b16121ac8461215e565b612143565b9050828152602081018484840111156121cd576121cc6120cd565b5b6121d884828561218f565b509392505050565b600082601f8301126121f5576121f46120c8565b5b813561220584826020860161219e565b91505092915050565b6000806040838503121561222557612224611fe1565b5b600061223385828601612060565b925050602083013567ffffffffffffffff81111561225457612253611fe6565b5b612260858286016121e0565b9150509250929050565b6000602082840312156122805761227f611fe1565b5b600061228e84828501612060565b91505092915050565b6122a08161200b565b82525050565b60006020820190506122bb6000830184612297565b92915050565b6000602082840312156122d7576122d6611fe1565b5b60006122e584828501612034565b91505092915050565b60008115159050919050565b612303816122ee565b82525050565b600060208201905061231e60008301846122fa565b92915050565b6000806040838503121561233b5761233a611fe1565b5b600061234985828601612034565b925050602061235a85828601612060565b9150509250929050565b600081519050919050565b600082825260208201905092915050565b60005b8381101561239e578082015181840152602081019050612383565b60008484015250505050565b60006123b582612364565b6123bf818561236f565b93506123cf818560208601612380565b6123d8816120d2565b840191505092915050565b600081519050919050565b600082825260208201905092915050565b6000819050602082019050919050565b61241881611fa3565b82525050565b600061242a838361240f565b60208301905092915050565b6000602082019050919050565b600061244e826123e3565b61245881856123ee565b9350612463836123ff565b8060005b8381101561249457815161247b888261241e565b975061248683612436565b925050600181019050612467565b5085935050505092915050565b6124aa8161200b565b82525050565b600060c08301600083015184820360008601526124cd82826123aa565b915050602083015184820360208601526124e78282612443565b915050604083015184820360408601526125018282612443565b915050606083015161251660608601826124a1565b506080830151612529608086018261240f565b5060a083015161253c60a086018261240f565b508091505092915050565b6000602082019050818103600083015261256181846124b0565b905092915050565b600081519050919050565b600082825260208201905092915050565b6000819050602082019050919050565b600060c08301600083015184820360008601526125b282826123aa565b915050602083015184820360208601526125cc8282612443565b915050604083015184820360408601526125e68282612443565b91505060608301516125fb60608601826124a1565b50608083015161260e608086018261240f565b5060a083015161262160a086018261240f565b508091505092915050565b60006126388383612595565b905092915050565b6000602082019050919050565b600061265882612569565b6126628185612574565b93508360208202850161267485612585565b8060005b858110156126b05784840389528151612691858261262c565b945061269c83612640565b925060208a01995050600181019050612678565b50829750879550505050505092915050565b600060208201905081810360008301526126dc818461264d565b905092915050565b600082825260208201905092915050565b600061270082612364565b61270a81856126e4565b935061271a818560208601612380565b612723816120d2565b840191505092915050565b6000604082019050818103600083015261274881856126f5565b90506127576020830184612297565b9392505050565b600067ffffffffffffffff821115612779576127786120e3565b5b602082029050602081019050919050565b600080fd5b60006127a261279d8461275e565b612143565b905080838252602082019050602084028301858111156127c5576127c461278a565b5b835b8181101561280c57803567ffffffffffffffff8111156127ea576127e96120c8565b5b8086016127f789826121e0565b855260208501945050506020810190506127c7565b5050509392505050565b600082601f83011261282b5761282a6120c8565b5b813561283b84826020860161278f565b91505092915050565b6000806040838503121561285b5761285a611fe1565b5b600083013567ffffffffffffffff81111561287957612878611fe6565b5b612885858286016121e0565b925050602083013567ffffffffffffffff8111156128a6576128a5611fe6565b5b6128b285828601612816565b9150509250929050565b600080604083850312156128d3576128d2611fe1565b5b60006128e185828601612060565b92505060206128f285828601612060565b9150509250929050565b600061290782611feb565b9050919050565b612917816128fc565b811461292257600080fd5b50565b6000813590506129348161290e565b92915050565b6000806040838503121561295157612950611fe1565b5b600061295f85828601612925565b925050602061297085828601612060565b9150509250929050565b6000815190506129898161201d565b92915050565b6000602082840312156129a5576129a4611fe1565b5b60006129b38482850161297a565b91505092915050565b7f4e487b7100000000000000000000000000000000000000000000000000000000600052601160045260246000fd5b60006129f682611fa3565b9150612a0183611fa3565b9250828202612a0f81611fa3565b91508282048414831517612a2657612a256129bc565b5b5092915050565b7f4e487b7100000000000000000000000000000000000000000000000000000000600052601260045260246000fd5b6000612a6782611fa3565b9150612a7283611fa3565b925082612a8257612a81612a2d565b5b828204905092915050565b7f4e487b7100000000000000000000000000000000000000000000000000000000600052603260045260246000fd5b7f4e487b7100000000000000000000000000000000000000000000000000000000600052602260045260246000fd5b60006002820490506001821680612b0357607f821691505b602082108103612b1657612b15612abc565b5b50919050565b60008190508160005260206000209050919050565b60006020601f8301049050919050565b600082821b905092915050565b600060088302612b7e7fffffffffffffffffffffffffffffffffffffffffffffffffffffffffffffffff82612b41565b612b888683612b41565b95508019841693508086168417925050509392505050565b6000819050919050565b6000612bc5612bc0612bbb84611fa3565b612ba0565b611fa3565b9050919050565b6000819050919050565b612bdf83612baa565b612bf3612beb82612bcc565b848454612b4e565b825550505050565b600090565b612c08612bfb565b612c13818484612bd6565b505050565b5b81811015612c3757612c2c600082612c00565b600181019050612c19565b5050565b601f821115612c7c57612c4d81612b1c565b612c5684612b31565b81016020851015612c65578190505b612c79612c7185612b31565b830182612c18565b50505b505050565b600082821c905092915050565b6000612c9f60001984600802612c81565b1980831691505092915050565b6000612cb88383612c8e565b9150826002028217905092915050565b612cd182612364565b67ffffffffffffffff811115612cea57612ce96120e3565b5b612cf48254612aeb565b612cff828285612c3b565b600060209050601f831160018114612d325760008415612d20578287015190505b612d2a8582612cac565b865550612d92565b601f198416612d4086612b1c565b60005b82811015612d6857848901518255600182019150602085019450602081019050612d43565b86831015612d855784890151612d81601f891682612c8e565b8355505b6001600288020188555050505b505050505050565b6000612da582611fa3565b91507fffffffffffffffffffffffffffffffffffffffffffffffffffffffffffffffff8203612dd757612dd66129bc565b5b600182019050919050565b7f496e76616c696420696e64657800000000000000000000000000000000000000600082015250565b6000612e18600d836126e4565b9150612e2382612de2565b602082019050919050565b60006020820190508181036000830152612e4781612e0b565b9050919050565b6000612e5982611fa3565b915060008203612e6c57612e6b6129bc565b5b600182039050919050565b6000612e8282611fa3565b9150612e8d83611fa3565b9250828203905081811115612ea557612ea46129bc565b5b92915050565b600081549050612eba81612aeb565b9050919050565b818103612ecf575050612fa7565b612ed882612eab565b67ffffffffffffffff811115612ef157612ef06120e3565b5b612efb8254612aeb565b612f06828285612c3b565b6000601f831160018114612f355760008415612f23578287015490505b612f2d8582612cac565b865550612fa0565b601f198416612f4387612b1c565b9650612f4e86612b1c565b60005b82811015612f7657848901548255600182019150600185019450602081019050612f51565b86831015612f935784890154612f8f601f891682612c8e565b8355505b6001600288020188555050505b5050505050505b565b7f4e487b7100000000000000000000000000000000000000000000000000000000600052603160045260246000fd5b6000604082019050612fed6000830185612297565b8181036020830152612fff81846126f5565b90509392505050565b60008151905061301781612049565b92915050565b60006020828403121561303357613032611fe1565b5b600061304184828501613008565b91505092915050565b7f4f6e6c79206465706c6f7965722063616e207769746864726177000000000000600082015250565b6000613080601a836126e4565b915061308b8261304a565b602082019050919050565b600060208201905081810360008301526130af81613073565b9050919050565b60006130c182611fa3565b91506130cc83611fa3565b92508282019050808211156130e4576130e36129bc565b5b9291505056fea26469706673582212207bca6f6f6ded568137667179fcce6177ceab559f6e507b947f26074df67c4d1d64736f6c63430008120033",
  "linkReferences": {},
  "deployedLinkReferences": {}
}